:020000040800F2
:100000003004002045010008D11500084D08000803
:10001000CD15000845080008ED1800080000000094
:100020000000000000000000000000004D18000863
:1000300049080008000000001917000851180008BE
:100040005F0100085F0100085F0100085F01000810
:100050005F0100085F0100085F0100085F01000800
:100060005F0100085F0100085F0100085F010008F0
:100070005F0100085F0100085F0100085F010008E0
:100080005F0100085F0100085F0100085F010008D0
:100090005F0100085F0100085F0100085F010008C0
:1000A0005F010008E51800085F0100085F01000813
:1000B0005F0100085F0100085F0100085F010008A0
:1000C0005F0100085F0100085F0100085F01000890
:1000D0005F010008E91800085F0100085F010008DF
:1000E0005F0100085F0100085F0100085F01000870
:1000F0005F0100085F0100085F0100085F01000860
:100100005F0100085F0100085F0100085F0100084F
:100110005F0100085F0100085F0100085F0100083F
:100120005F0100085F0100085F0100085F0100082F
:10013000DFF80CD000F018FA00480047451B000813
:10014000300400200648804706480047FEE7FEE7E7
:10015000FEE7FEE7FEE7FEE7FEE7FEE7FEE7FEE777
:10016000E11800083101000830B50B4601460020B7
:100170002022012409E021FA02F59D4205D303FA69
:1001800002F5491B04FA02F52844151EA2F10102EA
:10019000F1DC30BD2DE9F05F0546002092469B461C
:1001A00088460646814640241BE02846414647468D
:1001B000224600F0FAF953465A46C01A914110D32C
:1001C00011461846224600F0E1F92D1A67EB0108A6
:1001D0004F4622460120002100F0D8F917EB000914
:1001E0004E41201EA4F10104DFDC484631462A4678
:1001F0004346BDE8F09F2DE9FE4F804681EA0300AB
:10020000C00F0C46009021F0004123F00045B8EBF0
:100210000200A94105D24046214690461C460B46A5
:10022000024623F00040104347D0270DC7F30A00D1
:10023000C3F30A510290401A019040286BDAC3F3CD
:10024000130040F4801B0098924620B10023D2EBAB
:10025000030A63EB0B0B01985946C0F1400250466C
:1002600000F094F906460D4650465946019A00F0B2
:10027000ACF910EB08006141002487EA115284EACE
:10028000E7731A4340D0009A62B3019A012A4FEAF9
:10029000075215DC001B61EB02014FF0004202EA3D
:1002A0000752CDE90042001C41F5801132462B4631
:1002B00000F0ACF903B0BDE8F08F40462146F9E705
:1002C000001B61EB0201001C41F5801300185B412B
:1002D0002018A2F5001747EB030140EAD570B619C4
:1002E0006D4111E06D084FEA360645EAC0754FEAE8
:1002F0000752001B61EB0201001C41F58011490807
:100300004FEA30000019514132462B4603B0BDE898
:10031000F04F00F06CB90098012240000023D0EBB0
:10032000020263EBE073009821464FEAE074B8EBF9
:10033000000061EB0401E9E783F000435BE781F033
:10034000004158E72DE9FE4F81EA030404F0004420
:1003500021F0004100944FF0000B23F0004350EADD
:1003600001045ED052EA03045BD0C3F30A54C1F324
:100370000A552C44A4F2F3340194A0FB0254C1F3B7
:10038000130141F48011C3F3130343F4801301FB01
:10039000024400FB034E840A970A44EA815447EA68
:1003A0008357A4FB076802958D0A05FB07854FEA72
:1003B000932C04FB0C542705029D4FEA065847EA8C
:1003C0001637B5EB08056EEB070C870E920E47EA61
:1003D000811742EA8312A7FB0201B6EB0B0164EB23
:1003E00000042B0D43EA0C335E1844EB1C50DA4634
:1003F0005146E7FB0201C5F313044FEA0B3343EA0E
:1004000014534FEA0432019C43EA0603A4F10C049E
:100410000294009CCDE900B400F0F8F803B0BDE808
:10042000F08F00200146F9E72DE9F04D81EA030441
:1004300004F0004B21F0004514464FF0000A23F071
:10044000004150EA050220D054EA01021DD0C5F354
:100450000A570246C5F31303C1F31300C1F30A564A
:1004600040F4801543F48013A7EB0608101BD64612
:1004700008F2FD3873EB050002D308F1010801E032
:1004800092185B41B8F1000F03DA00200146BDE885
:10049000F08D00204FF48011064684460EE0171BB5
:1004A00073EB050705D3121B63EB050306434CEA08
:1004B000010C49084FEA300092185B4150EA0107ED
:1004C000EDD152EA030012D082EA040083EA05016A
:1004D000084305D0101BAB4106D20122002306E0E1
:1004E00000224FF0004302E06FF0010253101AEBBC
:1004F00006004CEB085110EB0A0041EB0B01BDE884
:10050000F04D00F074B8C1F30A52C1F3130140F288
:10051000FF3341F480119A4202DA0020014670470D
:1005200040F233439A42A2F2334202DC524200F0DC
:100530003CB800F02BB8000030B5041E71F1000487
:1005400004DB4FF00044404264EB0101141E73F1E0
:10055000000405DB1C464FF00043524263EB0403EA
:10056000994208BF904230BD064C074D06E0E06856
:1005700040F0010394E8070098471034AC42F6D3EA
:10058000FFF7DAFDE825000808260008202A04DB2A
:10059000203A00FA02F1002070479140C2F1200396
:1005A00020FA03F3194390407047202A04DB203AD5
:1005B00021FA02F00021704721FA02F3D040C2F183
:1005C00020029140084319467047202A06DBCB17CA
:1005D000203A41FA02F043EAE07306E041FA02F3FE
:1005E000D040C2F12002914008431946704710B52F
:1005F000141E73F1000408DA401C41F10001921846
:100600005B411A4301D120F0010010BD2DE9F04DEE
:1006100092469B4611B1B1FA81F202E0B0FA80F243
:1006200020329046FFF7B2FF04460F4640EA0A0028
:1006300041EA0B0153465A46084313D0114653EA88
:10064000010019D0C8F140025046FFF7AEFF054641
:100650000E46504659464246FFF798FF084305D0DC
:10066000012004E020463946BDE8F08D0020054316
:1006700046EAE0762C4337430A986305E40AA0EB88
:1006800008000022FD0A44EA47540A3002D500203F
:100690000146E9E7010510196941DDE9084500193E
:1006A0006941BDE8F04DA2E780B582B0FF2000F0BF
:1006B00053F88DF806009DF80600552804D1FFE791
:1006C00000208DF8070017E0FF200090552100F072
:1006D00091F8009800F040F88DF806009DF80600AB
:1006E000552804D1FFE700208DF8070004E0FFE75C
:1006F00001208DF80700FFE79DF8070002B080BDDC
:1007000040F2AC11C4F222210120086040F2B01185
:10071000C4F222210860704780B584B0ADF80E00A5
:100720000291ADF80620FFE7BDF8060088B1FFE7AB
:10073000BDF80E00411CADF80E1000F00DF8029946
:100740004A1C02920870BDF806000138ADF8060098
:10075000EAE704B080BD000080B582B0ADF80600C5
:10076000002000908DF8050000F062F9BDF8060049
:10077000C0F30621A02000EB4100C0B200F010F948
:1007800000F0ACF99DF8060000F00AF900F0A6F9B7
:1007900000F04EF9A12000F003F900F09FF9009855
:1007A00000F0ACF88DF8050000F06EF99DF805003A
:1007B00002B080BD80B584B0ADF80E000291ADF8F6
:1007C0000620FFE7BDF80600411EADF8061078B11F
:1007D000FFE7BDF80E000299097800F00BF8BDF8AC
:1007E0000E000130ADF80E00029801300290E9E7EA
:1007F00004B080BD80B582B0ADF806008DF805105C
:1008000000F016F9BDF80600C0F30621A02000EBA9
:100810004100C0B200F0C4F800F060F99DF8060095
:1008200000F0BEF800F05AF99DF8050000F0B8F8A5
:1008300000F054F900F028F90A2000F0BDFD02B0E4
:1008400080BD0000FFE7FEE770470000FFE7FEE71E
:1008500080B584B040F2B011C4F222210291002090
:100860000390086041F20402C4F20102116821F40D
:1008700070411160116841F44051116040F2AC11B7
:10088000C4F2222108600220019001F0FDF80198D5
:10089000029A0121116001F0F7F8029903980860AB
:1008A00004B080BD80B584B040F2B011C4F2222102
:1008B000029100200390086041F20401C4F201019A
:1008C000086820F470400860086840F440500860F0
:1008D00040F2AC11C4F222210120009008600220F5
:1008E000019001F0D1F800990198029A116001F08D
:1008F000CBF802990398086004B080BD80B582B03F
:100900008DF8070000208DF8050041F20402C4F2C2
:100910000102116821F470411160116841F4004135
:1009200011608DF80600FFE79DF80600072829DC16
:10093000FFE740F2B011C4F22221009100200860CC
:10094000022001F0A1F80099012008609DF805003F
:1009500040008DF8050040F22C10C4F222200068FF
:1009600030B1FFE79DF8050001308DF80500FFE785
:10097000012001F089F8FFE79DF8060001308DF8AD
:100980000600D1E79DF8070018B9FFE7FFF78AFFD7
:1009900002E0FFF75DFFFFE79DF8050002B080BDB4
:1009A00080B584B08DF80F0041F20401C4F201015A
:1009B000086820F470400860086840F440500860FF
:1009C00040F2B011C4F22221002008608DF80E0020
:1009D000FFE79DF80E00072828DCFFE79DF80F00D1
:1009E000C00940F2AC11C4F2222108609DF80F004A
:1009F00040008DF80F000220029001F045F80298A7
:100A000040F2B012C4F2222201920121116001F0E1
:100A10003BF8019A02980021116001F035F8FFE7D8
:100A20009DF80E0001308DF80E00D2E704B080BDB5
:100A300080B584B041F20401C4F20101086820F4D9
:100A400070400860086840F44050086040F2AC1103
:100A5000C4F2222100910120086040F2B011C4F2DA
:100A60002221029108600420019001F00DF8009A03
:100A7000019800210391116001F006F80299039892
:100A8000086004B080BD000080B584B041F204016C
:100A9000C4F20101086820F470400860086840F45E
:100AA0004050086040F2B011C4F2222101910020B0
:100AB000086040F2AC11C4F22221029108600420C7
:100AC000039000F0E1FF019B029A03980121196055
:100AD000116000F0D9FF04B080BD000080B582B085
:100AE00000208DF8060041F20401C4F201010868FB
:100AF00020F470400860086840F40040086040F24C
:100B0000AC11C4F2222101200090086000F0BCFF6B
:100B1000009840F2B011C4F22221086000F0B4FF46
:100B2000FFE740F22C10C4F22220006888B1FFE7F2
:100B30009DF8060001308DF806009DF80600FB28A0
:100B400006DBFFE7FFF7A0FF01208DF8070009E0B3
:100B5000E7E740F2B011C4F22221002008608DF8CE
:100B60000700FFE79DF8070002B080BD82B001904A
:100B7000019A41F21C00C4F20200016811430160B5
:100B80000068019908400090009802B0704700008A
:100B900082B00190019A41F21800C4F2020001688B
:100BA000114301600068019908400090009802B06C
:100BB0007047000082B00190019A41F21800C4F21F
:100BC000020001681143016000680199084000902B
:100BD000009802B07047000082B00190019A41F283
:100BE0001800C4F202000168114301600068019915
:100BF00008400090009802B07047000082B0019059
:100C0000019A41F21800C4F2020001681143016028
:100C10000068019908400090009802B070470000F9
:100C200042F20000C4F20200006800F007007047C2
:100C300081B0009042F20001C4F20201086820F085
:100C40000700009A1043086001B070470421C4F205
:100C500001010868022262F31A6008607047000010
:100C600080B586B00590049104980068C0F30F2009
:100C70000390039890FAA0F0B0FA80F00290FFE79A
:100C800003980299C840002849D0FFE703980299C9
:100C9000C840C00700283ED0FFE70298072806D8C2
:100CA000FFE7029940F201108840019009E00298A4
:100CB000A0F108014FF00110884040F080600190E1
:100CC000FFE704984068082807D1FFE705980199D5
:100CD000049A126900F064F8FFE705980199049AF4
:100CE000526800F029F804984068012805D0FFE711
:100CF0000498406809280DD1FFE705980199049AE6
:100D0000926800F063F805980199049AD26800F09F
:100D10002DF8FFE7FFE7029801300290B0E70020CE
:100D200006B080BD82B001900091BDF8010001992C
:100D3000086102B07047000084B0039002910192F4
:100D400003989DF80B100844009000990868029AD7
:100D500092FAA2F2B2FA82F293000F229A409043E2
:100D6000019A9A401043086004B0704784B0039021
:100D70000291019203989DF80B100844009000998D
:100D80000868029A92FAA2F2B2FA82F2930004225E
:100D90009A409043019A9A401043086004B070470B
:100DA00083B00290019100920298C06801990A0AEA
:100DB00020EA1120009992FAA2F2B2FA82F291404E
:100DC00008430299C86003B07047000084B00390E4
:100DD0000291019203989DF80B100844009000992D
:100DE0000868029A92FAA2F2B2FA82F293000322FF
:100DF0009A409043019A9A401043086004B07047AB
:100E000084B0039002910398C0680190BDF8090076
:100E10000090019A009802EA0001904340EA0140E4
:100E20000399086104B0704780B582B001900198C1
:100E30004FF47A7100F002F802B080BD82B00190E8
:100E4000009101980099B0FBF1F001384EF21401C5
:100E5000CEF2000108604EF21801CEF2000100202F
:100E600008604EF21001CEF200010520086002B0C9
:100E70007047000041F20400C4F20200006800F074
:100E8000F000704741F20400C4F20200006800F470
:100E9000E060704741F20400C4F20200006800F410
:100EA0006050704741F20400C4F20200006800F094
:100EB0000C00704741F20400C4F20200006800F028
:100EC0000C00704780B582B0019000F05FFC019982
:100ED00008600198006800F021FC019948600198C1
:100EE000406800F02FFC019988600198406800F08C
:100EF0003BFC0199C86002B080BD000041F20001D6
:100F0000C4F20201086840F48030086070470000B5
:100F100041F20000C4F202000068C0F34040704794
:100F200082B00190009141F20401C4F2020108680C
:100F300020F47C10019A02F44032009B1A431043C3
:100F4000086002B07047000041F20001C4F20201E3
:100F5000086840F0807008607047000041F20400AB
:100F6000C4F20200006800F48030704741F20400CF
:100F7000C4F20200006800F47010704741F20400EF
:100F8000C4F202000068C0F34040704741F2000024
:100F9000C4F202000068C0F34060704781B0009066
:100FA00041F20401C4F20201086820F0F000009A46
:100FB0001043086001B0704781B0009041F2040115
:100FC000C4F20201086820F4E060009A104308604F
:100FD00001B0704781B0009041F20401C4F20201F7
:100FE000086820F46050009A1043086001B0704710
:100FF00081B0009041F20401C4F20201086820F0BF
:101000000300009A1043086001B0704781B000905F
:10101000009840F20401C2F20001086001B070477C
:1010200081B000900099886820F08000886001B04D
:101030007047000081B000900099086840F080007F
:10104000086001B07047000081B0009000994869C5
:1010500040F00100486101B07047000080B584B0E5
:1010600003900291039800680190039842F60041B2
:10107000C4F20101884225D0FFE7039843F2004102
:10108000C4F2010188421DD0FFE70398B0F1804F00
:1010900018D0FFE7039840F20041C4F200018842F3
:1010A00010D0FFE7039840F60001C4F20001884227
:1010B00008D0FFE7039840F60041C4F200018842DF
:1010C00008D1FFE7019820F07000029949680843B1
:1010D0000190FFE7039842F60041C4F20101884203
:1010E00025D0FFE7039843F20041C4F20101884292
:1010F0001DD0FFE70398B0F1804F18D0FFE70398A9
:1011000040F20041C4F20001884210D0FFE703988A
:1011100040F60001C4F20001884208D0FFE70398BE
:1011200040F60041C4F20001884208D1FFE701986F
:1011300020F440700299C96808430190FFE70198C4
:101140000399086003980299896800F021F80398D0
:101150000299098800F032F8039842F60041C4F27F
:101160000101884208D0FFE7039843F20041C4F22E
:101170000101884206D1FFE703980299096900F04E
:1011800025F8FFE70398FFF75FFF002004B080BD5C
:1011900082B00190009100980199C86202B0704736
:1011A00082B0019000910198806844F20701884361
:1011B000009908430199886002B0704782B001909D
:1011C000009100980199886202B0704782B0019046
:1011D000009100980199086302B0704782B00190B5
:1011E00000910198406820F070000099084301992F
:1011F000486002B07047000081B000900099086913
:1012000020F4904008610099486920F02A00486164
:1012100001B0704781B000900099C86840F4005058
:10122000C86001B07047000080B588B00790069193
:1012300001208DF8170000200490079800F070F846
:10124000002869D1FFE70798C06841F20C61884324
:10125000069A5168D36812691943114308430799E4
:10126000C86007980699896800F098F80798069969
:10127000496900F085F86846FFF724FE079843F6B1
:101280000001C4F20101884203D1FFE703980490F2
:1012900030E0079844F20041C4F20001884203D1D3
:1012A000FFE70298049024E0079844F60001C4F296
:1012B0000001884203D1FFE70298049018E00798E4
:1012C00044F60041C4F20001884203D1FFE70298CE
:1012D00004900CE0079845F20001C4F20001884236
:1012E00003D1FFE70298049000E0FFE7FFE7FFE784
:1012F000FFE7FFE7049870B1FFE70698006850B178
:10130000FFE700208DF8170007980499069A1268E5
:1013100000F00EF8FFE7FFE79DF8170008B080BD6A
:1013200081B000900098C068C0F3403001B07047B1
:1013300083B00290019100920198192148430099CD
:101340008900B0FBF1F348F21F51C5F2EB11A3FB8A
:1013500001204209642002FB1033322000EB03100D
:10136000A0FB0101F02000EA511000EB0210C1F3D4
:101370004311084480B20299886003B070470000AE
:1013800082B0019000910198406920F4407000996A
:1013900008430199486102B07047000082B0019093
:1013A00000910198006920F4405000990843019988
:1013B000086102B07047000082B001904EF2100048
:1013C000CEF200000068009000980198013020B132
:1013D000FFE7019801300190FFE7FFE7019870B146
:1013E000FFE74EF21000CEF200000068C0030028B4
:1013F00004D5FFE7019801380190FFE7EEE702B05E
:101400007047000080B58CB0002003900B900A90CC
:101410000990089007902020FFF7CCFB0420FFF7ED
:10142000C9FB1020FFF7C6FB40F60000C4F2010024
:1014300001900121C0F201410091FFF773FC41F2DC
:101440000000C4F2010006901821C0F21841029178
:10145000FFF768FC009A0198039907920122049211
:10146000089209920A9107A90591FFF7F9FBDDF8A7
:1014700008C0039B049A05990698CDF81CC00892F1
:101480004FF0030CCDF824C00A930B92FFF7E8FB52
:101490000CB080BD80B588B0002001900790069008
:1014A0000590049003904FF40060FFF795FB00F067
:1014B00057FA019A114600F0C3F80146192000902E
:1014C00000F080FA009800F013FA019848F69F4166
:1014D000ADF80C1004904FF4FA6105910690079056
:1014E00042F60040C4F20100029003A9FFF7B6FDE6
:1014F0000298FFF79FFD01990298FFF751FE0199AD
:101500000298FFF76BFE0298FFF78AFD08B080BDD6
:1015100080B592B000200490119010900F900E9022
:101520000D900C900B900A900990089007900690EF
:101530004FF48040FFF762FB04200090FFF75EFB52
:1015400004980221C0F2024106910921079103216A
:101550000891099040F60000C4F20100029006A92B
:101560000191FFF77DFB009A019902980423C0F2D4
:10157000044306930792FFF773FB00F0F9F9049A0E
:10158000114600F093F801462520039000F03CFA44
:10159000039800F0C5F904984FF4E1310B910C90D9
:1015A0000D900E900C210F911090119043F60000B9
:1015B000C4F2010005900BA9FFF736FE0598FFF76E
:1015C0001BFE0598FFF726FE12B080BDFFE7FEE781
:1015D000FFE7FEE788B0079006910592079800F0B4
:1015E000070004900498C0F10700052803D3FFE723
:1015F0000420019004E00498C0F107000190FFE787
:101600000198039004980430062803D8FFE70020CF
:10161000009003E0049803380090FFE700980290E0
:1016200006980399012202FA01F101390840029B50
:10163000984005999A40013A1140084308B0704714
:1016400088B0079006910592079800F00700049073
:101650000498C0F10700052803D3FFE70420019098
:1016600004E00498C0F107000190FFE7019803909F
:1016700004980430062803D8FFE70020009003E018
:10168000049803380090FFE70098029006980399A9
:10169000012202FA01F101390840029B98400599A4
:1016A0009A40013A1140084308B0704788B007904B
:1016B00006910592079800F0070004900498C0F185
:1016C0000700052803D3FFE70420019004E00498F5
:1016D000C0F107000190FFE70198039004980430DF
:1016E000062803D8FFE70020009003E004980338A1
:1016F0000090FFE70098029006980399012202FAF1
:1017000001F101390840029B984005999A40013A3D
:101710001140084308B070477047000080B582B0A0
:10172000019001980090FFF7A5FB01460098C9B20F
:101730000A0942F23251C0F60001895CC84002B089
:1017400080BD000080B582B0019001980090FFF745
:1017500099FB014600980A0A42F24251C0F6000184
:10176000895CC84002B080BD80B582B0019001980C
:101770000090FFF78FFB01460098CA0A42F24251DF
:10178000C0F60001895CC84002B080BD80B582B05F
:1017900000200190FFF78EFB0146009140B1FFE76A
:1017A000009804280AD0FFE7009808280CD00FE022
:1017B00041F20020C0F27A0001900FE041F20020D7
:1017C000C0F27A00019009E000F00CF8019005E009
:1017D00041F20020C0F27A000190FFE7019802B0C8
:1017E00080BD000080B584B0002003900290FFF718
:1017F000B5FB02900298019028B1FFE70198B0F57F
:10180000803F06D010E040F60010C0F23D0003908B
:1018100010E0FFF7B3FB411C41F20020C0F27A0058
:10182000B0FBF1F0039005E040F60010C0F23D007F
:101830000390FFE703980090FFF798FB024600989B
:10184000022101EB9241484304B080BD7047000083
:101850007047000080B582B00220FFF7E9F9FFE78A
:10186000FFF7DEF9022801D0FFE7F9E7FFF746FBB3
:10187000FFE7FFF74DFB012801D0FFE7F9E74FF441
:1018800080304FF4E011FFF74BFBFFF75DFBFFE704
:10189000FFF77CFB012801D0FFE7F9E7002001906A
:1018A000FFF77CFB4FF48060FFF786FB0198FFF7A2
:1018B00091FB0220FFF79CFBFFE7FFF7F3FA0828F4
:1018C00001D0FFE7F9E74AF20020C0F24A40009059
:1018D000FFF7AAFA0098FFF799FB02B080BD00005D
:1018E000704700007047000070470000FFE7FEE708
:1018F00081B08DF803009DF9030000280ED4FFE7A6
:101900009DF9031001F01F02012090404A094EF298
:101910000011CEF2000141F82200FFE701B070474C
:1019200081B08DF803009DF9030000280ED4FFE775
:101930009DF9031001F01F02012090404A094EF268
:101940000011CEF2000141F82200FFE701B070471C
:101950004EF60C50CEF200000068C0F30220704733
:101960004EF60C50CEF200000068C0F30220704723
:101970004EF60C50CEF200000068C0F30220704713
:1019800082B08DF8070000919DF9070000280AD465
:10199000FFE7009800019DF907104EF20042CEF2D9
:1019A000000288540BE0009800019DF8071001F038
:1019B0000F014EF61452CEF200028854FFE702B037
:1019C0007047000082B08DF8070000919DF9070074
:1019D00000280AD4FFE7009800019DF907104EF295
:1019E0000042CEF2000288540BE0009800019DF8FE
:1019F000071001F00F014EF61452CEF20002885487
:101A0000FFE702B07047000082B08DF80700009138
:101A10009DF9070000280AD4FFE7009800019DF90E
:101A200007104EF20042CEF2000288540BE00098FC
:101A300000019DF8071001F00F014EF61452CEF28E
:101A400000028854FFE702B07047000083B00290A4
:101A5000029800F0070000904EF60C51CEF2000103
:101A60000868019001984FF6FF021040019001981C
:101A7000009A40EA02200022C0F2FA52104301907C
:101A80000198086003B0704786B00590002001906F
:101A90004EF21400CEF2000000680090059840F26B
:101AA0000801C2F200010968484304904EF2180090
:101AB000CEF2000000680390FFE74EF21800CEF26D
:101AC0000000006802900298039988421ED0FFE748
:101AD00002980399884207D2FFE703980299411AB6
:101AE00001980844019008E000980299401A03996F
:101AF0000144019808440190FFE70298039001987F
:101B00000499884201D3FFE701E0FFE7D5E706B07B
:101B10007047000082B001900091FFE743F600009B
:101B2000C4F2010000684006002801D4FFE7F5E791
:101B30009DF8040043F60401C4F201010860019815
:101B400002B0704780B586B0002004900590012057
:101B5000FFF71EF84FF08050FFF708F80320FFF75B
:101B600075FFFFF7F5FE049A0F21FFF733FD0146DD
:101B70004FF0FF30FFF704FFFFF768F8FFF76AFE4A
:101B8000FFF740FCFFF7C4FCFFF784FCFEF7B8FD4D
:101B9000FFE7FEF789FDC0B1FFE742F27D50C0F6D6
:101BA000000042F2D352C0F600026E2100F048F865
:101BB00040F60000C4F201000121C0F20141FFF72C
:101BC0001FF96420FFF7F8FBE3E742F24A51C0F641
:101BD0000001002002900D220392FEF7EBFDC820C9
:101BE000FFF7EAFB0298039A40F21001C2F20001EB
:101BF000FEF792FDFFE742F2B350C0F6000042F25A
:101C0000D352C0F6000201927E2100F019F8019A29
:101C100042F25750C0F6000040F21003C2F2000337
:101C20007F2100F00DF840F60000C4F20100012110
:101C3000C0F20141FFF7E4F86420FFF7BDFBDAE7EB
:101C40000FB4054B10B503A9044A029800F0DAF866
:101C500010BC5DF814FB0000151B000800000020FC
:101C600002E008C8121F08C1002AFAD17047704765
:101C7000002001E001C1121F002AFBD170470000C3
:101C80002DE9FF5F82B00021DDE90430020DDDF8AF
:101C900040B0034318D044F61050A2F2FF32424342
:101CA0001514119801281FD0A5EB0B00401C5FEA0A
:101CB000000A4FF000064E4FDFF83891B04650460C
:101CC00015D5CAF1000413E0119801244AA3012894
:101CD00001D16FEA0B010298119AC0E90031C0E905
:101CE000024206B0BDE8F09FCBF10000DFE70446FA
:101CF0000021404A491842EB0450CDE9001012E09F
:101D0000E00707D032463B4640464946FEF71AFBFD
:101D10008046894632463B4610461946FEF712FB7E
:101D200006460F466410002CEAD1DDE90401DDE926
:101D30000023BAF1000F06DAFEF704FB42464B46D9
:101D4000FEF700FB05E0FEF76FFB42464B46FEF751
:101D50006BFB04460E460022284BFEF7EDFB03D832
:101D60004FF0FF30014607E00022254B2046314668
:101D7000FEF741FAFEF7C7FB102409E0002C0ADB4E
:101D80000A220023FEF706FA039B30321A55641E1E
:101D900050EA0102F2D1641C039AC4F11103144405
:101DA000119A012A03D0012208430DD10AE0084309
:101DB00004D000204FF0110B119072E7A3EB0B053C
:101DC0006D1E0DE05B4504DD4FF0000205F10105DD
:101DD00004E003DA4FF00002A5F10105002AECD07F
:101DE00002981199C0E90231C0E9004579E7000085
:101DF000000014400000F03F300000000000F043FD
:101E00000000E03F2DE9FF4F95B09B46894606460E
:101E100000250FE2252877D100242746F84A012122
:101E2000059400E0044316F8013F203B01FA03F05B
:101E30001042F7D130782A2811D06FF02F03307874
:101E4000A0F13002092A16D8059A44F0020402EBE8
:101E5000820203EB42021044761C0590EFE759F82A
:101E6000042B0592002A03DA504244F400540590F2
:101E700044F00204761C30782E2816D116F8010F93
:101E800044F004042A280DD06FF02F023078A0F11E
:101E90003003092B09D807EB870302EB4303C7186C
:101EA000761CF3E759F8047B761C30786C280FD049
:101EB00006DC4C2817D068280DD06A2814D104E01D
:101EC000742810D07A280FD10DE044F400140AE0F1
:101ED00044F4801401E044F440147278824202D148
:101EE00004F58014761C761C307866280BD013DC41
:101EF000582877D009DC002875D04528F6D0462828
:101F0000F4D047281AD19DE118E0632835D0642821
:101F100079D0652812D195E1702873D008DC672844
:101F2000F1D069286FD06E280DD06F2806D1B5E0AA
:101F300073282CD0752875D0782874D05A461799F4
:101F400090476D1C75E1C4F30250022809D00328A4
:101F50000DD0D9F8001004280DD00D6009F1040946
:101F600067E1D9F80010EA17C1E90052F6E7D9F89D
:101F700000100D80F2E70D70F0E719F8041B8DF8E2
:101F8000001000208DF80100EA46012003E059F816
:101F900004AB4FF0FF3061074FF0000102D40DE0B9
:101FA00008F101018846B9420FDA8045F8DB1AF8DA
:101FB00008100029F4D108E008F1010188468142A7
:101FC000FADB1AF808100029F6D105985B46A0EB59
:101FD000080721463846179A00F094FA284400EB87
:101FE000080507E04DE029E10DE01AF8010B5A461B
:101FF00017999047B8F10108F7D25B462146384659
:10200000179A13E142E00A220092C4F302524FF001
:10201000000A022A08D059F804CB032A4FEAEC71CF
:102020000AD00DE029E02AE009F1070121F00702BA
:10203000F2E802C1914609E00FFA8CFC4FEAEC711C
:10204000042A03D14FFA8CFC4FEAEC71002907DA1D
:102050000A460021DCF1000C61EB02012D2202E0B6
:10206000220504D52B228DF80420012203E0E2078B
:1020700001D02022F7E7904659E00A2102E0102221
:102080000DE010214FF0000A00910BE010224FF0FC
:10209000000A44F004040827009203E008224FF0ED
:1020A000000A0092C4F30252022A05D059F804CB68
:1020B0000021032A08D009E009F1070121F00702F5
:1020C000F2E802C1914605E01FFA8CFC042A01D116
:1020D0000CF0FF0C4FF00008220728D5702806D01E
:1020E000009B83F0100353EA0A0305D00EE0402260
:1020F0008DF80420012208E05CEA010206D03022BB
:102100008DF804208DF8050002229046009B83F094
:10211000080353EA0A030AD15CEA010201D162070B
:1021200005D530228DF804204FF001087F1E582875
:1021300004D034A003900EA802900DE036A0F9E779
:1021400053466046009AFEF725F884460398825C61
:102150000298401E029002705CEA0100F0D10298E1
:1021600006A9081A00F1200A600702D524F4803479
:1021700000E00127574502DDA7EB0A0000E0002040
:1021800000EB0A01009005984144401A0590E003D5
:1021900006D45B462146179A059800F0B3F905442A
:1021A000002706E001A85A46C05D179990476D1CAC
:1021B0007F1C4745F6DBE0030CD55B462146179AAA
:1021C000059800F09FF9054404E030205A4617991D
:1021D00090476D1C0099481E00900029F5DC08E02E
:1021E000029802995A460078491C02911799904723
:1021F0006D1CBAF10001AAF1010AF1DC65E10000F1
:1022000009280100303132333435363738396162CC
:102210006364656600000000303132333435363790
:1022200038394142434445460000000000F058F967
:102230000544761C307800287FF4ECAD19B02846B0
:10224000BDE8F08F620700D4062709F1070222F0EB
:10225000070CFCE80223E14603F000485FEA080CA3
:1022600002D00FF2702C0DE05FEA045C02D50FF291
:10227000682C07E05FEAC47C02D00FF2602C01E01A
:10228000AFF2700C4FF0FF3823F00043CDF850C090
:1022900065280CD006DC452809D046281DD04728E3
:1022A0003DD13DE0662818D067287ED138E0002176
:1022B000112F01DB112000E0781CCDE9000106A9F7
:1022C0000EA8FFF7DDFCDDE90F010E9A0391002156
:1022D000009207F1010A04914DE04FF00040009791
:1022E000CDE9011006A90EA8FFF7CAFCDDE90F022F
:1022F00003920E9B11990022DDF80CA0009304922A
:1023000011B9791C00EB010AB7EB0A0004D4C0F143
:10231000FF3007F1010A0490AAEB0700019044E0A6
:10232000012F00DA01270021112F01DD112000E02B
:102330003846CDE9000106A90EA8FFF7A1FCDDE9AA
:102340000F010E9A0391002104910092BA462107D1
:102350000CD40399514500DA8A46BAF1010F05DD24
:10236000009AAAF10101515C302908D0B84202DA82
:1023700010F1040F06DA0121CDE9011015E0AAF1F0
:102380000101E9E7002805DC049901440491AAEB66
:10239000000102E0411C514500DD8A460499401AC3
:1023A000401C01904FF000400290200704D4019897
:1023B000504501DBCDF8048000208DF84F000298D5
:1023C0000DF14F07B0F1004F25D02B200E90029851
:1023D0004FF0020800280CDA404202902D200E90A7
:1023E00007E00A210298FDF7BFFE3031029007F89E
:1023F000011DB8F10001A8F10108F2DC02980028E3
:10240000EFD1791E0E980870307800F0200040F06F
:10241000450007F8020D12A8C01B00F10708149828
:10242000007800B1012000EB0A01019801EBE07196
:1024300005984144401A401E0590E00306D45B46CF
:102440002146179A059800F05DF805441498007825
:1024500018B15A46179990476D1CE00324D55B4686
:102460002146179A059800F04DF805441CE00498A1
:10247000002807DBDDE90301884203DD0098405CAA
:10248000179901E0179930205A469047049805F1B2
:102490000105401C04900198401E019004D12E209B
:1024A0005A46179990476D1CBAF10001AAF1010A2A
:1024B000DDDC05E017F8010B5A46179990476D1CB3
:1024C000B8F10001A8F10108F4DC5B462146179A37
:1024D0000598ABE62D0000002B0000002000000056
:1024E0002DE9F041044600251E461746880404D411
:1024F00005E039462020B0476D1C641EF9D52846FA
:10250000BDE8F0812DE9F041044600251E469046C5
:10251000C80301D5302700E02027880404D505E052
:1025200041463846B0476D1C641EF9D52846BDE8C3
:10253000F081000000000000000001020304060713
:1025400008090000000001020304E8B59EE8B59EFA
:10255000E68F90E69C97006C696E653D2564206669
:10256000696C653D2573202D2D2D41543234207228
:10257000656164206F75743A25730A0A006C696E90
:10258000653D25642066696C653D2573202D2D2DE4
:10259000323443303220436865636B204661696C96
:1025A0006564210A506C6561736520436865636BDF
:1025B000210A006C696E653D25642066696C653D85
:1025C0002573202D2D2D68656C6C6F20776F726CD4
:1025D000640A002E2E2F436F72652F5372632F6D86
:1025E00061696E2E630000000826000800000020CC
:1025F00010000000601C00081826000810000020D1
:1026000020040000701C0008000000000024F400FA
:0826100048000000000000007A
:0400000508000131BD
:00000001FF
