:020000040800F2
:10000000F80800202D020008991900088B18000834
:100010009519000829070008FD1E000800000000CF
:10002000000000000000000000000000C5190008EA
:100030002D070008000000009B1900081D1A000889
:10004000470200084702000847020008470200086C
:10005000470200084702000847020008470200085C
:10006000470200084702000847020008470200084C
:10007000470200084702000847020008470200083C
:10008000470200084702000847020008470200082C
:10009000470200084702000847020008470200081C
:1000A000470200084702000847020008470200080C
:1000B00047020008470200087D1A000847020008AE
:1000C00047020008470200084702000847020008EC
:1000D00047020008BD1E000847020008470200084A
:1000E00047020008470200084702000847020008CC
:1000F00047020008470200084702000847020008BC
:1001000047020008470200084702000847020008AB
:10011000470200084702000847020008470200089B
:10012000470200084702000847020008470200088B
:1001300000F002F800F06BF80AA090E8000C82448E
:100140008344AAF10107DA4501D100F060F8AFF26B
:10015000090EBAE80F0013F0010F18BFFB1A43F0A5
:10016000010318473C3100005C3100000A444FF0A5
:10017000000C10F8013B13F0070408BF10F8014B06
:100180001D1108BF10F8015B641E05D010F8016B4B
:10019000641E01F8016BF9D113F0080F1EBF10F8AF
:1001A000014BAD1C0C1B09D16D1E58BF01F801CBD2
:1001B000FAD505E014F8016B01F8016B6D1EF9D555
:1001C0009142D6D37047000000230024002500266A
:1001D000103A28BF78C1FBD8520728BF30C148BFAA
:1001E0000B607047642900F09F80752900F09C80A7
:1001F000782900F0D580632900F02982732900F066
:100200002E82002070471FB51FBD10B510BD00F035
:1002100059FA1146FFF7F7FF01F0E0FE00F077FA18
:1002200003B4FFF7F2FF03BC01F08DFE09488047DD
:1002300009480047FEE7FEE7FEE7FEE7FEE7FEE7C8
:10024000FEE7FEE7FEE7FEE704480549054A064BE0
:1002500070470000251A000831010008F80200204C
:10026000F8080020F8040020F8040020704700007F
:100270000FB4044910B503AA029800F0F5F910BCB8
:100280005DF814FB1400002070B504468569006811
:10029000C10601D5302600E02026C00707D070BD7A
:1002A000D4E9012130469047206A401C20626D1E2F
:1002B000F6D570BD70B5044685690078C00707D1D2
:1002C00070BDD4E9012120209047206A401C2062A3
:1002D0006D1EF6D570BD70B50C460546012A05D0D9
:1002E0002878800600D5EA69002302E0012305E0B2
:1002F0005B1C934202D2E05C0028F9D1A869E618A1
:10030000C01AA861286A184428622846FFF7BCFF73
:1003100004E0D5E9012114F8010B9047B442F8D369
:100320002846FFF7C7FF70BD2DE9F04106460024BF
:1003300010687529314616A510D0AFF3008000284B
:1003400002DA404213A507E031688A0701D512A5F9
:1003500002E0490704D511A5012401E0AFF30080B4
:1003600000210A2206F1240709E0B0FBF2FCB0FBF1
:10037000F2F302FB1C00303078541846491C002868
:10038000F3D123462A463046BDE8F04100F0FCB8E0
:10039000000000002D0000002B00000020000000E5
:1003A00070B504460D4621461068AFF300802188E1
:1003B000090502D50F4A7A4402E00E4A7A440E3209
:1003C000002104F1240305E000F00F060009965D0A
:1003D0005E54491C0028F7D120780023000704D57B
:1003E000702D02D009B1022311322046BDE87040C1
:1003F00000F0CAB8162E00002DE9F05F89460446C9
:100400004FF0000ADFF874B1FB44C0F820A020468A
:10041000E1688847002874D0252806D0D4E9012156
:100420009047206A401C2062F1E700265F46204684
:10043000E16888472028054607DB312D05D2781969
:1004400010F8200C08B10643F1E7B00701D526F0FB
:100450000406C4F81CA00027C4F818A02A2D09D04F
:10046000284601F069FD38B304EB8708303DC8F831
:10047000185019E059F8041B204604EB87029161DB
:10048000E1688847012F054618D1E069002820DA85
:1004900026F020061DE0D8F8180000EB800005EBE0
:1004A00040003038C8F818002046E1688847054603
:1004B00001F042FD0028EED1012F0AD02E2D08D1E7
:1004C0002046E16888477F1C0546022F46F020063B
:1004D000C4DBA069002803DA404246F00106A061AF
:1004E000F00701D026F010066C2D0BD0682D09D036
:1004F0004C2D39D06A2D35D0742D35D07A2D33D08E
:1005000016E038E0E1682F4620468847B8420546A5
:1005100009D16C2F26D04FF48060E1680643204655
:100520008847054604E06C2F1AD04FF480700643CC
:100530000DB3A5F14100192802D8203546F4006614
:100540004A462946204626604E46FFF74BFE80B1BC
:1005500001280BD0F61D26F0070000F1080956E728
:100560004020E4E78020D8E70020D6E706F1040920
:100570004DE7284652E7206ABDE8F09FEC2D0000C9
:1005800070477047704770472DE9F0470D46994610
:100590009246044600F124080168880604D5E06903
:1005A00021F01001216000E00120A84201DD471B7D
:1005B00000E00027A1697A1902EB0900081AA0617E
:1005C0002078C00602D42046FFF75EFE002608E031
:1005D000D4E901211AF806009047206A401C761CD5
:1005E00020624E45F4DB2078C0060AD52046FFF78E
:1005F0004BFE06E0D4E9012130209047206A401CE0
:100600002062381EA7F10107F4DC07E0D4E90121DC
:1006100018F805009047206A401C2062281EA5F1AA
:100620000105F3DC2046FFF745FE2078000602D5E1
:100630000220BDE8F0870120FBE710B5436913B144
:10064000AFF3008001E0FFF746FE012010BD1278F5
:1006500000F124010A7000224A700122EDE71168BE
:100660004FF0FF32E9E70000074B70B50D467B44C1
:1006700000F011F80446284600F020F810B14FF0C1
:10068000FF3070BD204670BD4F19000001694A1C43
:1006900002610878704700B58FB0CDE901310021C3
:1006A000059105497944CDE9031011466846FFF7E5
:1006B000A3FE0FB000BD0000E5FFFFFF007B00F0D0
:1006C00080007047754600F02BF8AE46050069467D
:1006D000534620F00700854618B020B5FFF7B4FD5B
:1006E000BDE820404FF000064FF000074FF0000833
:1006F0004FF0000B21F00701AC46ACE8C009ACE8B4
:10070000C009ACE8C009ACE8C0098D46704710B517
:100710000446AFF300802046BDE81040FFF780BDDF
:10072000004870479402002000BFFEE770470000B9
:1007300070B50446002594F82100022803D0042057
:10074000A0630125C1E02068006820F00E00216848
:1007500008602068006820F00100216808605C499A
:100760002068884252D95A4978392068884201D194
:10077000012047E0564964392068884201D11020A1
:1007800040E0534950392068884201D1801539E052
:100790004F493C392068884201D1801432E04C49ED
:1007A00028392068884202D14FF480302AE0484935
:1007B00014392068884202D14FF4801022E0444965
:1007C0002068884201D140041CE0424920688842E8
:1007D00001D1012016E03F4914312068884201D13F
:1007E00010200FE03B4928312068884201D1801554
:1007F00008E038493C312068884201D1801401E08A
:100800004FF480303349091F086051E0304978398E
:100810002068884201D1012047E02D4964392068D1
:10082000884201D1102040E029495039206888428F
:1008300001D1801539E026493C392068884201D130
:10084000801432E0224928392068884202D14FF4CE
:1008500080302AE01E4914392068884202D14FF4C2
:10086000801022E01A492068884201D140041CE02F
:1008700018492068884201D1012016E01549143139
:100880002068884201D110200FE0124928312068E9
:10089000884201D1801508E00E493C312068884229
:1008A00001D1801401E04FF480300949803948605B
:1008B000012084F8210000BF002084F8200000BF40
:1008C000606B10B12046616B8847284670BD000000
:1008D00080000240080402402DE9F8470246002348
:1008E0009C467BE14FF0010808FA03F4D1F8008040
:1008F00008EA0400A0427DD1DFF8F4A2D1F8048018
:10090000A8EB0A09D0453AD014DCB8F1030F50D057
:1009100009DCB8F1000F31D0B8F1010F1CD0B8F1EB
:10092000020F49D120E0B8F1110F18D0B8F1120F21
:1009300042D11EE0B9F5881F25D006DCB9F5803F0D
:1009400020D0B9F5801F37D11AE0B9F5001F18D0B3
:10095000B9F5041F30D117E0D1F80CC02DE0D1F863
:100960000C8008F1040C28E0D1F80C8008F1080C88
:1009700023E0D1F80C8008F10C0C1EE000BF00BF92
:1009800000BF00BF00BF00BFD1F80880B8F1000F62
:1009900002D14FF0040C0BE0D1F80880B8F1010F40
:1009A00003D14FF0080C146102E04FF0080C5461C1
:1009B00003E04FF0000C00E000BF00BFFF2801D8AB
:1009C000904601E002F104084646FF2802D84FEAAB
:1009D000830803E0A3F108084FEA88084746D6F8E1
:1009E00000804FF00F0909FA07F928EA09080CFA04
:1009F00007F900E07AE048EA0908C6F80080D1F873
:100A0000048008F08058B8F1805F6FD100BFDFF834
:100A1000E481D8F8188048F00108DFF8D891C9F8C7
:100A20001880C846D8F8188008F00108CDF8008072
:100A300000BF00BF4FEAB9384FEA930958F8295070
:100A40004FEA83784FEA18794FF00F0808FA09F84F
:100A500025EA0805DFF8A081424502D14FF00008E1
:100A600024E0DFF89881424502D14FF001081DE0F3
:100A7000DFF88C81424502D14FF0020816E0DFF822
:100A80008481424502D14FF003080FE0DFF87881FE
:100A9000424502D14FF0040808E0DFF8708142457A
:100AA00002D14FF0050801E04FF006084FEA8379C4
:100AB0004FEA197908FA09F848EA0505DFF8508184
:100AC0004FEA930948F82950D1F8048008F4803897
:100AD000B8F5803F0BD1DFF83C81D8F8008048EAB8
:100AE0000008DFF83091C9F800800AE075E0DFF80F
:100AF0002481D8F8008028EA0008DFF81891C9F8A6
:100B00000080D1F8048008F40038B8F5003F0ED119
:100B1000DFF8008108F10408D8F8008048EA0008EE
:100B2000DFF8F09009F10409C9F800800DE0DFF862
:100B3000E48008F10408D8F8008028EA0008DFF80B
:100B4000D49009F10409C9F80080D1F8048008F4B0
:100B50008018B8F5801F0ED1DFF8B88008F10808BA
:100B6000D8F8008048EA0008DFF8A89009F10809E1
:100B7000C9F800800DE0DFF89C8008F10808D8F87B
:100B8000008028EA0008DFF88C9009F10809C9F80C
:100B90000080D1F8048008F40018B8F5001F0ED1C9
:100BA000DFF8708008F10C08D8F8008048EA0008E7
:100BB000DFF8609009F10C09C9F800800DE0DFF85A
:100BC000548008F10C08D8F8008028EA0008DFF803
:100BD000449009F10C09C9F800805B1CD1F8008031
:100BE00028FA03F8B8F1000F7FF47CAEBDE8F8876F
:100BF000000011100010024000080140000C0140EC
:100C0000001001400014014000180140001C014088
:100C100008000140000401400AB1016101E00B0439
:100C2000036170470148006870470000040000201D
:100C3000034800680349097808440149086070477F
:100C4000040000200C00002010B50848006840F0A7
:100C5000100006490860052000F080F80F2000F021
:100C600007F800F02BF8002010BD00000020024023
:100C700070B504460E4800784FF47A71B1FBF0F07D
:100C80000C490968B1FBF0F5284600F0F7FB08B104
:100C9000012070BD102C07D200222146501E00F00A
:100CA0001EF80548046001E00120F2E70020F0E7AB
:100CB0000C000020000000200800002070470146C2
:100CC0000846002809DB00F01F0301229A4043096F
:100CD0009B0003F1E023C3F8002100BF70472DE91A
:100CE000F05F80460D461646002701F009F90746D9
:100CF00039462A46334601F00700C0F1070ABAF127
:100D0000040F02D94FF0040A01E0C0F1070AD146EE
:100D100000F1040ABAF1070F02D24FF0000A01E015
:100D2000A0F1030AD4464FF0010A0AFA09FAAAF11F
:100D3000010A0AEA020A0AFA0CFA4FF0010B0BFA4E
:100D40000CFBABF1010B0BEA030B4AEA0B04214647
:100D5000404601F0DDF8BDE8F09F000000BF00F064
:100D60000702064B19684FF6FF031940044B0B436B
:100D700043EA0221014B196000BF70470CED00E00F
:100D80000000FA0570B504460D460CB9012070BD8F
:100D90005A48006800F00700A8420ED25748006881
:100DA00020F007002843554908600846006800F015
:100DB0000700A84201D00120E9E7207800F00200F6
:100DC00002281DD1207800F00400042805D14C48E9
:100DD000406840F4E0604A494860207800F008002C
:100DE000082805D14648406840F4605044494860AE
:100DF0004348406820F0F000A1680843404948603B
:100E0000207800F0010078B36068012806D13C48E2
:100E1000006800F4003090B90120B8E7606802284B
:100E200006D13748006800F0007040B90120AEE7F5
:100E30003348006800F0020008B90120A7E73048F5
:100E4000406820F00300616808432D494860FFF7BF
:100E5000E9FE064609E0FFF7E5FE801B41F2883116
:100E6000884202D9032092E707E02548406800F055
:100E70000C006168B0EB810FEDD12048006800F0F4
:100E80000700A8420ED91D48006820F0070028433B
:100E90001A4908600846006800F00700A84201D01F
:100EA000012074E7207800F00400042807D11448DA
:100EB000406820F4E060E168084311494860207808
:100EC00000F00800082808D10D48406820F4605060
:100ED000216940EAC1000A49486000F03FF808492A
:100EE0004968C1F30311074A515CC84006490860CC
:100EF00006480068FFF7BCFE002048E700200240DB
:100F000000100240B8310008000000200800002056
:100F100001480068704700000000002000B5FFF79E
:100F2000F7FF04494968C1F30221034A515CC840F4
:100F300000BD000000100240C831000800B5FFF7F6
:100F4000E7FF04494968C1F3C221034A515CC84024
:100F500000BD000000100240C8310008F0B585B0A7
:100F60000FF26C0C9CE8E01001A8A0E8E0101CA5B2
:100F70002D68009500210022002300240020194D37
:100F8000696801F00C05F5B1042D02D0082D19D1C6
:100F900001E0154819E001ADC1F38346AC5D01F4F1
:100FA000803555B10F4D6D68C5F340451DF80520DE
:100FB0000D4D6543B5FBF2F302E00C4D04FB05F368
:100FC000184602E000BF084800BF00BF05B0F0BDF2
:100FD00002030405060708090A0B0C0D0E0F10107A
:100FE000010200000010024000127A0000093D00DA
:100FF000F8B504460CB90120F8BD207800F00100D6
:10100000002878D0F848406800F00C0004280CD084
:10101000F548406800F00C00082811D1F2484068FB
:1010200000F48030B0F5803F0AD1EF48006800F44A
:10103000003000285FD0606800285CD10120DBE729
:1010400000BF6068B0F5803F06D1E748006840F413
:101050008030E549086028E0606858B9E2480068D7
:1010600020F48030E04908600846006820F48020C1
:1010700008601AE06068B0F5A02F0BD1DA4800686C
:1010800040F48020D84908600846006840F4803069
:1010900008600AE0D448006820F48030D249086033
:1010A0000846006820F48020086000BF606888B1AE
:1010B000FFF7B8FD054606E0FFF7B4FD401B6428C6
:1010C00001D9032098E7C848006800F400300028E0
:1010D000F2D010E0FFF7A6FD054606E0FFF7A2FDFF
:1010E000401B642801D9032086E7BF48006800F44C
:1010F00000300028F2D1207800F00200022857D1F9
:10110000B948406800F00C0050B1B748406800F0A2
:101110000C00082818D1B448406800F4803098B911
:10112000B148006800F0020020B12069012801D018
:10113000012061E7AC48006820F0F800616940EAEE
:10114000C100A949086033E02069E8B10120A7493E
:101150000860FFF767FD054606E0FFF763FD401BEB
:10116000022801D9032047E79F48006800F00200E9
:101170000028F2D09C48006820F0F800616940EA3D
:10118000C1009949086013E0002098490860FFF702
:1011900049FD054606E0FFF745FD401B022801D941
:1011A000032029E79048006800F002000028F2D1EF
:1011B000207800F0080008282DD1A069B8B10120DE
:1011C0008B490860FFF72EFD054606E0FFF72AFD74
:1011D000401B022801D903200EE78348406A00F033
:1011E00002000028F2D0012000F0D8FB13E000201C
:1011F0007F490860FFF716FD054606E0FFF712FD80
:10120000401B022801D90320F6E67748406A00F027
:1012100002000028F2D1207800F00400042873D1E5
:1012200000277148C06900F0805070B900BF6E4857
:10123000C06940F080506C49C8610846C06900F040
:101240008050009000BF00BF01276A48006800F48A
:101250008070B0B96748006840F4807065490860E4
:10126000FFF7E0FC054606E0FFF7DCFC401B6428C6
:1012700001D90320C0E65F48006800F480700028B0
:10128000F2D000BFE068012806D15748006A40F05C
:1012900001005549086227E0E06858B95248006AE1
:1012A00020F00100504908620846006A20F004005E
:1012B000086219E0E06805280BD14B48006A40F04D
:1012C0000400494908620846006A40F001000862CB
:1012D0000AE04548006A20F00100434908620846D8
:1012E000006A20F00400086200BFE068A0B1FFF7C8
:1012F00099FC054609E0FFF795FC401B41F2883157
:10130000884202D9032077E622E03748006A00F0DD
:1013100002000028EFD012E0FFF784FC054608E049
:10132000FFF780FC401B41F28831884201D903203D
:1013300062E62D48006A00F002000028F0D1012F7B
:1013400005D12948C06920F080502749C86100BFF5
:10135000E069C8B32448406800F00C00082860D059
:10136000E069022848D1002020490866FFF75AFCAE
:10137000054606E0FFF756FC401B022801D9032072
:101380003AE61948006800F000700028F2D1206A9F
:10139000B0F5803F07D11448406820F40030A168C0
:1013A000084311494860D4E9080108430E494968D7
:1013B00021F4741108430C49486001200B49086668
:1013C000FFF730FC054607E03DE0FFF72BFC401B34
:1013D000022801D903200FE60348006800F00070DE
:1013E0000028F2D02FE0000000100240000042422E
:1013F0008004424200700040002014490866FFF754
:1014000011FC054606E0FFF70DFC401B022801D940
:101410000320F1E50E48006800F000700028F2D1CA
:1014200011E0E069012800D1E6E50948466806F4C4
:101430008031206A814204D106F47011606A8142D1
:1014400001D00120D8E50020D6E50000000042428E
:1014500000100240042808D14FF0E021096941F052
:1014600004014FF0E022116107E04FF0E02109692B
:1014700021F004014FF0E0221161704770B504467D
:101480002546681EB0F1807F01D301200FE0681E61
:101490004FF0E02148610F214FF0FF3000F038FDA0
:1014A00000204FF0E021886107200861002070BD16
:1014B00010B504460CB9012010BD94F83D0028B9C0
:1014C000002084F83C00204600F00CF8022084F84C
:1014D0003D00211D206800F0F3FA012084F83D0052
:1014E0000020E9E7704701460868C06840F0010045
:1014F0000B68D8600868806800F00702062A05D0EB
:101500000868006840F001000B6818600020704710
:10151000704701460022002391F8392091F83A30B3
:1015200042EA0300704700002DE9F04704462068B6
:1015300005682068C668206847694FF00008C14602
:1015400005F00F08B8F1000F0AD105F0200038B1FE
:1015500006F0200020B1204600F058FBBDE8F087DF
:10156000B8F1000F6DD007F0010018B906F49070C3
:10157000002866D005F0010030B106F4807018B183
:10158000E06B40F00100E06305F0040030B107F0CB
:10159000010018B1E06B40F00200E06305F00200CA
:1015A00030B107F0010018B1E06B40F00400E063D7
:1015B00005F0080030B107F0010018B1E06B40F011
:1015C0000800E063E06B68B305F0200028B106F086
:1015D000200010B1204600F019FB20684069C0F3DC
:1015E0008019E06B00F0080010B9B9F1000F22D0AB
:1015F000204600F0EBFA2068406900F04000B0B1EE
:101600002068406920F0400021684861606B50B15B
:101610001748616B4863606BFFF78AF810B1606B25
:10162000416B88470CE02046FFF772FF08E0204638
:10163000FFF76EFF04E02046FFF76AFF0020E0633B
:101640008CE705F0800030B106F0800018B120462C
:1016500000F000FC82E705F0400030B106F04000E9
:1016600018B1204600F0C2FA78E700BF76E7000024
:10167000B91B000810B504460CB9012010BDA069C3
:1016800000B100E000BF94F8390028B9002084F8C8
:101690003800204600F028F8242084F8390020681B
:1016A000C06820F400502168C860204600F002FBAA
:1016B0002068006920F49040216808612068406932
:1016C00020F02A00216848612068C06840F400507A
:1016D0002168C8600020E063202084F8390084F885
:1016E0003A000020CAE7000010B586B0044625493C
:1016F0002068884244D100BF2348806940F004003C
:10170000214988610846806900F00400019000BF0B
:1017100000BF00BF0846806940F4804088610846E9
:10172000806900F48040019000BF00BF00BF084600
:10173000806940F0010088610846806900F001007E
:10174000019000BF00BF48150290022003900120C5
:1017500004900320059002A90C48FFF7BDF84FF450
:10176000806002900020039002A90848FFF7B4F8B7
:101770002520FFF7A4FA032211462520FFF7AFFA30
:1017800006B010BD003801400010024000080140C2
:1017900010B5034693F83A0020282FD101B10AB9B9
:1017A000012010BD00BF93F83800012801D10220AC
:1017B000F7E7012083F8380000BF99629A85DA853F
:1017C0000020D863222083F83A0000BF002083F86D
:1017D000380000BF1868C06840F480701C68E06082
:1017E0001868406940F001001C6860611868C068B2
:1017F00040F020001C68E0600020D2E70220D0E723
:101800001D4A0168914236D11C49098801F4004102
:1018100089BB1A49098801F4804171B118490978D6
:101820000A2903D00021154A118024E013490988B0
:1018300041F40041114A11801DE0114909780D2938
:1018400006D10E49098841F480410C4A118012E00A
:101850000B490978094A1288C2F30D02094B9954C1
:1018600006490988491C054A118011460988C7297B
:1018700001DD002111807047003801401800002070
:101880001A0000204C010020704700BFFEE7000056
:1018900000B585B000BF1C48806940F004001A49BB
:1018A00088610846806900F00400009000BF00BF16
:1018B00000BF0846806940F01000886108468069D2
:1018C00000F01000009000BF00BF01200190002038
:1018D0000290022003900320049001A90B48FEF718
:1018E000FBFF4FF4004001900120039001A907483D
:1018F000FEF7F2FF202001900120039001A9044887
:10190000FEF7EAFF05B000BD0010024000080140EC
:101910000010014000B585B000BF1B48806940F051
:101920000400194988610846806900F004000090AD
:1019300000BF00BF00BF0846806940F020008861FA
:101940000846806900F02000009000BF00BF8815A5
:1019500001900120029003900320049001A90B48FC
:10196000FEF7BAFF0420019001A90948FEF7B4FF71
:10197000012211020548FFF74FF901220421044812
:10198000FFF74AF905B000BD001002400008014011
:101990000014014000BFFEE77047704708B50849D2
:1019A0000968C9084FF47A72B1FBF2F14143009122
:1019B00000BF00BF00994A1E00920029F9D108BD5E
:1019C00000000020704730B58FB00546002401208C
:1019D0000590000406900020079002200C90C1039F
:1019E0000D910E9505A8FFF703FB04460CB100BF4F
:1019F000FEE70F20009002200190002002904FF49B
:101A0000806003900020049002216846FFF7BAF935
:101A100004460CB100BFFEE70FB030BD10B5FFF7B4
:101A200007F910BD1148006840F001000F49086037
:101A3000084640680E4908400C494860084600685E
:101A40000C490840094908600846006820F48020D5
:101A500008600846406820F4FE0048604FF41F000C
:101A60008860C80304490860704700000010024005
:101A70000000FFF8FFFFF6FE08ED00E010B50E488D
:101A80000068C06800F0010078B10C49086980471F
:101A9000002009490968486200BF642006490968B6
:101AA000C86264210448C16000BF6FF001000249B0
:101AB0000968086110BD0000540200205800002091
:101AC00010B50268204B98420ED0204B98420BD0A4
:101AD000B0F1804F08D01E4B984205D01D4B984264
:101AE00002D01D4B984203D122F070024B681A437A
:101AF000154B98420ED0154B98420BD0B0F1804F49
:101B000008D0134B984205D0124B984202D0124B8A
:101B1000984203D122F44072CB681A4322F080032A
:101B20004C6943EA040202608B68C3620B688362FB
:101B3000054B984202D0054B984201D10B690363D3
:101B40000123436110BD0000002C0140003401401E
:101B50000004004000080040000C004038B5044676
:101B60000D4600BF1148C06940F004000F49C8612C
:101B70000846C06900F00400009000BF00BF0322C7
:101B800011461E20FFF7ABF81E20FFF798F8084813
:101B9000084908600846456000218160C460016111
:101BA000FFF786FC0348FFF79EFC38BD001002409B
:101BB000000800405402002070B505466C6A002001
:101BC000E085E0842046FFF7A3FC70BD0168C9688A
:101BD00021F490710268D1600168496921F0010126
:101BE00002685161202180F83A10704710B5044610
:101BF0002068C06820F040002168C860202084F878
:101C000039002046FFF740FE002010BD70B50446A5
:101C100094F83A0022284AD1A068B0F5805F13D129
:101C2000A56A206940B920684068C0F30800288090
:101C3000A06A801CA06219E020684068C0B22880B9
:101C4000A06A401CA06211E0206938B92068406891
:101C5000C1B2A26A501CA062117007E020684068FF
:101C600000F07F01A26A501CA0621170E08D401E3E
:101C700080B2E085C8B92068C06820F020002168E3
:101C8000C8602068C06820F480702168C86020683F
:101C9000406920F0010021684861202084F83A0062
:101CA0002046FFF7ADFD002070BD0020FCE70220BC
:101CB000FAE7000070B504462168096921F4405133
:101CC000E2681143226811612269A16811436269C7
:101CD00041EA02052168C96841F20C629143294337
:101CE0002268D1602168496921F44071A2691143D9
:101CF00022685161564A2168914254D1FFF71EF97A
:101D000000EBC00101EB001162689200B1FBF2F13F
:101D100000EBC00202EB001263689B00B2FBF3F21F
:101D20006423B2FBF3F202EBC20303EB0212A1EB5A
:101D30008201322202EB01116422B1FBF2F101F0C7
:101D4000F00100EBC00202EB001263689B00B2FBE3
:101D5000F3F26423B2FBF3F201EB021200EBC001D9
:101D600001EB001163689B00B1FBF3F100EBC003D2
:101D700003EB00136668B600B3FBF6F36426B3FB0F
:101D8000F6F303EBC30606EB0313A1EB8301322347
:101D900003EB01116423B1FBF3F101F00F011144D6
:101DA0002268916053E0FFF7B9F800EBC00101EB46
:101DB000001162689200B1FBF2F100EBC00202EB8D
:101DC000001263689B00B2FBF3F26423B2FBF3F2F0
:101DD00002EBC20303EB0212A1EB8201322202EBFF
:101DE00001116422B1FBF2F101F0F00100EBC0023D
:101DF00002EB001263689B00B2FBF3F26423B2FBB8
:101E0000F3F201EB021200EBC00101EB0011636879
:101E10009B00B1FBF3F100EBC00303EB001366681A
:101E2000B600B3FBF6F36426B3FBF6F303EBC3068D
:101E300006EB0313A1EB8301322303EB01116423AF
:101E4000B1FBF3F101F00F0111442268916070BD04
:101E500000380140014691F8390021282CD18868CA
:101E6000B0F5805F0FD10A6A1088C0F308000B68D4
:101E70005860086918B9086A801C086209E0086A95
:101E8000401C086205E00B6A581C086218780B6851
:101E90005860C88C401E80B2C88458B90868C068B1
:101EA00020F080000B68D8600868C06840F04000EF
:101EB0000B68D860002070470220FCE710B50024B2
:101EC0000C48FFF731FB00BF01E0641C00BF09486C
:101ED000FFF71FFB2028F8D100BF002401E0641C9D
:101EE00000BF012204490348FFF752FC0028F6D145
:101EF00000BF10BD140200201A00002000BFFEE742
:101F000002480068C0F30220704700000CED00E0BA
:101F100010B5002804DB0A07130E054A135406E027
:101F20000A07140E034A00F00F031B1FD45410BD00
:101F300000E400E018ED00E030380A2801D201206A
:101F400070470020704700BF7047000010B504467E
:101F50000420FFF77FFA0148046010BD1000002044
:101F600030B50446002504E04FF47A7000F004F820
:101F70006D1CA542F8D330BD70B5034600224FF06A
:101F8000E02675690D4E366803FB06F44FF0E02637
:101F9000B16910E04FF0E026B06988420BD088426A
:101FA00002D20E1A324402E02E1A0E443244014686
:101FB000A24200D300E0EDE700BF70BD100000209A
:101FC00000BF054A126802F04002002AF9D0C2B2EE
:101FD000014B1B1D1A6070470038014000BFFEF71F
:101FE00033FE4FF4E010FFF7EEFC4820FFF7AEFFA2
:101FF0004FF4E13000F01AF8064841685420884751
:10200000FFF788FCFFF744FC02E003A0FEF730F97D
:10201000FBE700005800002068656C6C6F20776F4C
:10202000726C6400014608687047000010B50446F1
:1020300009480A4908600846446000218160C1607F
:10204000016181610C214161FFF714FB0122044908
:102050000248FFF79DFB10BD00380140140200202C
:102060001A00002030B595B0054613AB12AA09A995
:10207000284600F03FFA044614B1204615B030BDA2
:102080000020149026E0224909689DF8502001EBB9
:10209000C20113AB11AA486801A900F02BFA04464B
:1020A0000CB12046EAE709A901A800F0E1FC60B9FB
:1020B0009DF844009DF84810884201DD0220DDE7CC
:1020C0009DF85000124988750AE09DF85000401CA8
:1020D000C0B214900E48007D9DF850108842D2DCAA
:1020E00000BF0B48007D9DF85010884201D10420AC
:1020F000C4E714A9284600F0DDFA04460CB12046D6
:10210000BCE79DF85000024948750020B6E7000082
:10211000580000202DE9F0419AB09C48847D007D54
:10212000A04202DC1AB0BDE8F0819849096801EBD1
:10213000C40106AB07AA486808A900F0DBF908A9A2
:1021400093A0FEF795F8002644E09048008B01210B
:10215000B1400840D8B122218FA0FEF789F830465F
:1021600000F02EFB89492431471839468BA0FEF731
:102170007FF8222188A0FEF77BF8304600F020FB94
:1021800082492431084410A941F8260018E030465D
:1021900000F016FB7D492431085810A941F82600AB
:1021A0007A48C07D30B910A850F826107CA0FEF700
:1021B0005FF805E010A850F826107AA0FEF758F84E
:1021C0009DF81C00401EB04202D078A0FEF750F8E7
:1021D000701CC6B29DF81C008642B6DB74A0FEF7E8
:1021E00047F800F03FFB6948407D0B280DD2DFE83F
:1021F00000F0060D151E27323F4E5F7287006349BF
:10220000096851F834008047054690E05F4A12683B
:1022100052F8341010988847054688E05B4B1B68DD
:1022200053F83420DDE91001904705467FE0574F11
:102230003F6857F8343010A807C89847054676E03D
:10224000DFF848C1DCF800C05CF8347010A80FC893
:10225000B84705466BE01498DFF830C10090DCF811
:1022600000C05CF8347010A80FC8B84705465EE09F
:10227000DDE91401DFF814C1CDE90001DCF800C08C
:102280005CF8347010A80FC8B84705464FE0DDE988
:1022900014121698DFF8F4C0CDE900120290DCF8B1
:1022A00000C05CF8347010A80FC8B84705463EE07F
:1022B000DDE91423DDE91610DFF8D0C0CDE90023F5
:1022C000CDE90210DCF800C05CF8347010A80FC82B
:1022D000B84705462BE0DDE91523DDE91710CDE908
:1022E0000123CDE903101498DFF8A0C00090DCF8BA
:1022F00000C05CF8347010A80FC8B847054616E057
:10230000DDE91623DDE91810CDE90223CDE904103B
:10231000DDE91401DFF874C0CDE90001DCF800C08C
:102320005CF8347010A80FC8B847054600BF00BF5E
:1023300000F056FA9DF8180001280CD11348C07D12
:1023400020B929461BA0FDF793FF07E029461BA0F3
:10235000FDF78EFF02E018A0FDF78AFF0B4890F80A
:10236000EC0088B10948D0F8F0000A21B0FBF1F286
:1023700001FB12070548D0F8F000B0FBF1F83A462F
:10238000414611A0FDF774FF00BFCBE658000020C6
:102390000D0A257328000000256300002573000046
:1023A000256C640030582558000000002C00000007
:1023B000290000003D256C753B0D0A003D30582575
:1023C000583B0D0A0000000046756E6374696F6E1D
:1023D0002052756E2054696D653A25642E2531644E
:1023E0006D730D0A00000000F0B50346154600208D
:1023F0000022002600245BE01F782C2F01D104B9B5
:1024000001221F78292F01D01F780FB904B950E09D
:10241000002E3AD11F78302F02DB1F78392F17DDBD
:102420001F782D2F14D01F782B2F11D01F78612FDC
:1024300002DB1F78662F0BDD1F78412F02DB1F7830
:10244000462F05DD1F78582F02D01F78782F0CD12A
:1024500002B12EE01F78612F03DB1F78203F0F7041
:1024600001E01F780F70491C1FE01F78222F04D154
:1024700002B11EE00126012417E01F78202F14D09E
:102480001F782C2F11D0FF2613E01F78222F00D1A8
:10249000002402B10DE044B11F785C2F02D15B1C17
:1024A000471CF8B21F780F70491C471CF8B25B1C20
:1024B000A2E700BF00270F702E70F0BD10B50446D4
:1024C000002010700BE020780870641C491C107804
:1024D000401C10701078984201DB012010BD20785C
:1024E000202802D020780028EDD10020087000BFFD
:1024F000F4E700002DE9FF4F85B0804689460027AC
:10250000002004900390012002904FF0000B002562
:1025100044461DE02078202816D005F07F000528CD
:1025200012DA0DB945F0800505F07F00042803D1CB
:1025300020782A2800D00EE0207805F07F010DF8E1
:102540000100681CC5B202E0852D00D103E0641CC7
:1025500020780028DED100BF8DB1002005F07F017A
:102560000DF8010051A1684600F082FA18B9002167
:102570000898017002E001210898017000254FF0D1
:10258000000A444614E0641C0AF1010000F0FF0A4E
:102590002078202802D020782A2809D1204600F06F
:1025A000D9F90646282E03D02A2E01D0CDF810A046
:1025B0002078282802D020780028E4D144460498C6
:1025C00010B10498401C04444FF0000A002654E067
:1025D000207810B94FF0010A50E02078282803D164
:1025E00016B9781CC7B213E02078292808D13EB963
:1025F00017B1781EC7B201E04FF0010A47B93DE0BC
:102600002078222804D10EB9012000E000200646DF
:1026100047B9207820282FD0207889F8000009F1C8
:10262000010929E020782C2804D101200290681C9F
:10263000C5B214E02078202811D0207828280ED0A8
:102640004DB9BBF1050F06DA20780DF80B000BF140
:10265000010000F0FF0B0298401CC0B20290012F55
:102660000AD10298022807D10298401CC0B20290F9
:102670000398401CC0B20390641CA9E700BF0398F4
:10268000012809D100200DF80B0008A1684600F0D0
:10269000EFF908B90020039007990398087000200B
:1026A00089F80000504609B0BDE8F08F766F696484
:1026B000000000002DE9F043B5B005460F460024A8
:1026C000002604E000213D488155701CC6B20A2E48
:1026D000F8DB06E06D1C287818B9012035B0BDE89C
:1026E000F08328782828F5D16D1C61E034AA69466A
:1026F0002846FFF779FE064635449DF8D00020B104
:10270000012827D0FF284CD149E09DF8000000B3F4
:1027100033A9684600F029F906460EB10220DDE72C
:10272000204600F04DF825490A31339A0A50A1F1AC
:102730002400008B0121A140884320491A390883D5
:1027400004211E480155601CC4B20A2C01DD03207F
:10275000C4E726E0684600F0A7F9401C00F0FF0837
:10276000204600F02DF815490A3100EB01094946D1
:10277000684600F08EF911481A38018B0120A040FC
:10278000014388B20D491A3908830C4800F80480C7
:10279000601CC4B20A2C01DD03209FE701E0022087
:1027A0009CE700BF2878292801D0287800B900E0EC
:1027B0009CE700BF3C70002090E700007200002002
:1027C00002460020002105E0044B5B5C0344D8B2C4
:1027D0004B1CD9B29142F7DB704700007200002019
:1027E0000E480068006900F0010040B10C48D0F8C4
:1027F000F0004FF6FF7108440949C1F8F00008489D
:10280000D0F8F00005490968496A08440449C1F84C
:10281000F0000846D0F8F000704700005402002095
:102820005800002010B5044604EBC40000EB04106F
:102830000122C2EB800081B24FF47A70FFF78EF96B
:1028400001200149C87510BD5800002010B502468E
:10285000012000E050430B1EA1F10104E1B2F9D1C7
:1028600010BD00006FF0010009490968086100BF50
:10287000000C07490968C86201460548C16000BFED
:1028800000200349096848620249C1F8F000704716
:10289000540200205800002070B51D48008800F444
:1028A0000040002833D01A480578002019494855BF
:1028B000194881681748884704461CB91649C868F2
:1028C000804721E0134800F0FBF80546012D00D0B9
:1028D0002C46CCB1012C06D0022C08D0032C0AD0F7
:1028E000042C10D10BE00DA0FDF7C2FC0BE00EA0F4
:1028F000FDF7BEFC07E00FA0FDF7BAFC03E010A057
:10290000FDF7B6FC00BF00BF00200149088070BD84
:10291000180000204C01002058000020BAAFCAFD6A
:10292000B4EDCEF3210D0A00B2CECAFDB4EDCEF364
:10293000210D0A00B2CECAFDCCABB6E0210D0A00D3
:10294000CEB4D5D2B5BDC6A5C5E4B5C4BAAFCAFD2F
:10295000210D0A000146491C00E0491C0878202886
:1029600001D10029F9D1087870472DE9F04F0546CB
:102970000F4600264FF00A09B3462C460020386067
:1029800034E02078392802DC2078302811DA2878E1
:102990002D2802D028782B2800D156B1207846283F
:1029A00002DC2078412804DA2078582817D1012E3B
:1029B00015D12078412801DB4FF0100928782D2807
:1029C00003D14FF0020B6D1C0FE028782B2803D1A8
:1029D0004FF0010B6D1C08E0701CC6B205E02078BA
:1029E00000B904E00120BDE8F08F641CC9E700BF16
:1029F0002C46B9F1100F0FD1032E01DA0220F2E7B5
:102A00002078302806D16078582803D1A41CB01E45
:102A1000C6B204E00320E6E70EB90420E3E71BE0BA
:102A20000EB1701EC6B22078392806DC2078302816
:102A300003DB2078A0F1300A02E02078A0F1370A09
:102A400031464846FFF702FF39680AFB001038603C
:102A5000641C207800B900E0E2E700BFBBF1020F80
:102A600004D13868C0F10008C7F800800020BAE738
:102A700002460AE010780B78984201D00120704796
:102A8000107800B902E0521C491CF3E700BF002097
:102A9000F5E706E002780A70027802B902E0401C0D
:102AA000491CF7E700BF70470146002005E00A789F
:102AB00002B903E0421CD0B2491CF8E700BF7047DE
:102AC00010B58CB004461E230BAA03A92046FFF7BD
:102AD000F5FC0090009810B101200CB010BD9DF8DD
:102AE0002C00044400200B900EE040489DF82C2060
:102AF00050F8221003A8FFF7BBFF00B908E09DF8CB
:102B00002C00401CC0B20B909DF82C000728ECD381
:102B100000BF9DF82C00072863D2DFE800F0040511
:102B20003C5E6564630000BF31A0FDF7A1FB31A0EE
:102B3000FDF79EFB3FA0FDF79BFB4EA0FDF798FB2A
:102B40005CA0FDF795FB6BA0FDF792FB79A0FDF76C
:102B50008FFB87A0FDF78CFB8CA0FDF789FB94A071
:102B6000FDF786FB98A0FDF783FB9DA0FDF780FB9A
:102B7000A2A0FDF77DFBA8A0FDF77AFBB4A0FDF7AE
:102B800077FBC1A0FDF774FBCCA0FDF771FBD8A0CB
:102B9000FDF76EFBA2E216A0FDF76AFBE4A0FDF7CD
:102BA00067FB00200B900EE0F14800689DF82C2098
:102BB00000EBC2004168EFA0FDF75AFB9DF82C0026
:102BC000401CC0B20B90EA48007D9DF82C10884252
:102BD000EADC07A0FDF74CFB80E205A0FDF748FB0F
:102BE000CCE179E24DE221E2F4E100001C0000209A
:102BF0000D0A00002D2D2D2D2D2D2D2D2D2D2D2DA2
:102C00002D2D2D2D2D2D2D2D2D2D2D2D55534D4172
:102C100052542056332E332D2D2D2D2D2D2D2D2D6F
:102C20002D2D2D2D2D2D2D2D2D2D2D2D2D2D2D20E1
:102C30000D0A00002020202055534D415254CAC790
:102C4000D3C9414C49454E54454BBFAAB7A2B5C460
:102C5000D2BBB8F6C1E9C7C9B5C4B4AEBFDAB5F7DF
:102C6000CAD4BBA5BDBBD7E9BCFE2CCDA8B9FD20FD
:102C70000D0A0000CBFC2CC4E3BFC9D2D4CDA8B947
:102C8000FDB4AEBFDAD6FACAD6B5F7D3C3B3CCD04B
:102C9000F2C0EFC3E6B5C4C8CEBACEBAAFCAFD2CF7
:102CA000B2A2D6B4D0D02ED2F2B4CB2CC4E3BFC9DA
:102CB0000D0A0000D2D4CBE6D2E2B8FCB8C4BAAF59
:102CC000CAFDB5C4CAE4C8EBB2CECAFD28D6A7B3C4
:102CD000D6CAFDD7D62831302F3136BDF8D6C62C0E
:102CE000D6A7B3D6B8BACAFD29A1A2D7D6B7FBB426
:102CF000AE0D0A00A1A2BAAFCAFDC8EBBFDAB5D8C3
:102D0000D6B7B5C8D7F7CEAAB2CECAFD292CB5A57D
:102D1000B8F6BAAFCAFDD7EEB6E0D6A7B3D6313013
:102D2000B8F6CAE4C8EBB2CECAFD2CB2A2D6A7B39D
:102D3000D60D0A00BAAFCAFDB7B5BBD8D6B5CFD449
:102D4000CABE2ED6A7B3D6B2CECAFDCFD4CABEBD98
:102D5000F8D6C6C9E8D6C3B9A6C4DC2CD6A7B3D664
:102D6000BDF8D6C6D7AABBBBB9A6C4DC2E0D0A00D7
:102D7000BCBCCAF5D6A7B3D63A7777772E6F706505
:102D80006E6564762E636F6D0D0A000055534D41DC
:102D90005254D3D037B8F6CFB5CDB3C3FCC1EE286B
:102DA000B1D8D0EBD0A1D0B4293A0D0A0000000070
:102DB0003F3A202020202020BBF1C8A1B0EFD6FA56
:102DC000D0C5CFA20D0A000068656C703A202020A3
:102DD000BBF1C8A1B0EFD6FAD0C5CFA20D0A000052
:102DE0006C6973743A202020BFC9D3C3B5C4BAAF8D
:102DF000CAFDC1D0B1ED0D0A0A00000069643A2095
:102E000020202020BFC9D3C3BAAFCAFDB5C44944EE
:102E1000C1D0B1ED0D0A0A006865783A2020202063
:102E2000B2CECAFD3136BDF8D6C6CFD4CABE2CBA92
:102E3000F3B8FABFD5B8F12BCAFDD7D6BCB4D6B417
:102E4000D0D0BDF8D6C6D7AABBBB0D0A0A00000079
:102E50006465633A20202020B2CECAFD3130BDF82F
:102E6000D6C6CFD4CABE2CBAF3B8FABFD5B8F12BA8
:102E7000CAFDD7D6BCB4D6B4D0D0BDF8D6C6D7AA72
:102E8000BBBB0D0A0A00000072756E74696D653A6D
:102E9000312CBFAAC6F4BAAFCAFDD4CBD0D0BCC6C1
:102EA000CAB13B302CB9D8B1D5BAAFCAFDD4CBD05A
:102EB000D0BCC6CAB13B0D0A0A000000C7EBB0B4D3
:102EC000D5D5B3CCD0F2B1E0D0B4B8F1CABDCAE424
:102ED000C8EBBAAFCAFDC3FBBCB0B2CECAFDB2A24A
:102EE000D2D4BBD8B3B5BCFCBDE1CAF82E0D0A00E4
:102EF0002D2D2D2D2D2D2D2D2D2D2D2D2D2D2D2D02
:102F00002D2D2D2D2D2D2D2D2D2D414C49454E5442
:102F1000454B2D2D2D2D2D2D2D2D2D2D2D2D2D2DAB
:102F20002D2D2D2D2D2D2D2D2D2D2D200D0A00007B
:102F30002D2D2D2D2D2D2D2D2D2D2D2D2D2D2D2DC1
:102F40002D2D2D2D2D2D2D2D2DBAAFCAFDC7E5B55B
:102F5000A52D2D2D2D2D2D2D2D2D2D2D2D2D2D2D29
:102F60002D2D2D2D2D2D2D2D2D2D2D2D200D0A000E
:102F70005800002025730D0A0000000059A0FDF73D
:102F800077F900200B901AE0664909689DF82C201B
:102F900001EBC20101AB02AA486803A9FFF7AAFA34
:102FA000604800689DF82C1050F8312003A95EA0FD
:102FB000FDF75EF99DF82C00401CC0B20B905948FB
:102FC000007D9DF82C108842DEDCAFF2DC30FDF78E
:102FD0004FF983E0AFF2E830FDF74AF90BAA03A9F5
:102FE0002046FFF701FA9DF82C00C8B9694603A8EE
:102FF000FFF7BBFC0B909DF82C0020B94FA0009967
:10300000FDF736F90EE09DF82C00042801D00220CF
:1030100063E54DA0FDF72CF901204249C87501E098
:1030200002205AE547A0FDF723F957E045A0FDF738
:103030001FF90BAA03A92046FFF7D6F99DF82C002B
:10304000C8B9694603A8FFF790FC0B909DF82C00C7
:1030500020B942A00099FDF70BF90EE09DF82C0075
:10306000042801D0022038E53FA0FDF701F9002037
:103070002C49C87501E002202FE532A0FDF7F8F8D1
:103080002CE030A0FDF7F4F80BAA03A92046FFF7C7
:10309000ABF99DF82C00C8B9694603A8FFF765FC99
:1030A0000B909DF82C0078B91E49009881F8EC002F
:1030B000084690F8EC0018B130A0FDF7D9F807E009
:1030C00035A0FDF7D5F803E0022006E5022004E56F
:1030D0001CA0FDF7CDF801E00120FEE400BF0020B8
:1030E000FBE400002D2D2D2D2D2D2D2D2D2D2D2DE5
:1030F0002D2D2D2D2D2D2D2D2D2D2D2D2DBAAFCA54
:10310000FD204944202D2D2D2D2D2D2D2D2D2D2D06
:103110002D2D2D2D2D2D2D2D2D2D2D2D2D2D2D2DDF
:10312000200D0A005800002025732069642069736F
:103130003A0D0A3058253038580D0A004845583A9B
:10314000305825580D0A00003136BDF8D6C6B2CE2B
:10315000CAFDCFD4CABE210D0A0000004445433A3F
:10316000256C750D0A0000003130BDF8D6C6B2CE10
:10317000CAFDCFD4CABE210D0A00000052756E20D0
:1031800054696D652043616C63756C6174696F6E21
:10319000204F4E0D0A00000052756E2054696D6577
:1031A0002043616C63756C6174696F6E204F464695
:1031B0000D0A0000016070470000000000000000E0
:1031C00001020304060708090000000001020304CD
:1031D000303132333435363738394142434445464D
:1031E0004030580030313233343536373839616247
:1031F0006364656640307800040000080000000049
:103200000000000200010000100000003F0000006C
:10321000646563006964000072756E74696D6500B1
:1032200068656C70000000006C6973740000000039
:1032300068657800766F69642077726974655F618C
:103240006464722875333220616464722C75333281
:103250002076616C2900000075333220726561644C
:103260005F6164647228753332206164647229007E
:10327000766F69642064656C61795F6D7328753160
:1032800036206E6D73290000766F69642064656C6A
:1032900061795F757328753332206E75732900006C
:1032A000C0320008000000204C0100006C01000842
:1032B000103300084C010020AC070000C8010008D2
:1032C000115324F43210F201130C321B0820041A9B
:1032D00028041A14041A30041A10041A18041325A6
:1032E000201B08580813B5311B08340813611F1B35
:1032F0000870081A79081A88082238142025281B13
:103300000865281315211B08990C0A10046301CDC8
:0400000508000131BD
:00000001FF
